:0410000043EF08F0C2
:10100800FACF09F0FBCF0AF0E9CF0BF0EACF0CF0EA
:10101800E1CF0DF0E2CF0EF0D9CF0FF0DACF10F01C
:10102800F3CF11F0F4CF12F0F6CF13F0F7CF14F09E
:10103800F8CF15F0F5CF16F05FEC0DF047EC0AF09D
:1010480018EC09F016C0F5FF15C0F8FF14C0F7FF3B
:1010580013C0F6FF12C0F4FF11C0F3FF10C0DAFF8F
:101068000FC0D9FF0EC0E2FF0DC0E1FF0CC0EAFFC0
:101078000BC0E9FF0AC0FBFF09C0FAFF11004BEFE4
:101088000CF001000A006400E803102725750D0A1A
:101098000000000E00010001626F270E0001616F61
:1010A800B1D0000100016951250AD8B401D001D09E
:1010B80005D069C017F0D9EC0DF0A4D0296E000E48
:1010C80000010001606F295008D0ADD09BD0C00E40
:1010D80000010001601314D013D025C0F6FF26C00C
:1010E800F7FF254A262A08000001F5CF69F000011C
:1010F8006951000AD8B497D0750AD8B4E8D782D015
:1011080061C0D9FF62C0DAFF0001DECF63F00001E1
:10111800DDCF64F0020E000100016127000E00011E
:101128006223296E010E00010001696F2950000138
:1011380000016951050AD8A401D001D002D02AD0F3
:1011480029D0000100016951020D8A0EF324F66EC0
:10115800100EF420F76E0900F5CF29F00900F5CF3D
:101168002AF0295000010001635D2A5000010001A6
:101178006459D8B001D001D002D00CD00BD00001F6
:101188000001692B000100016951050AD8A401D0AA
:1011980001D0D7D769C068F02AD000010001685192
:1011A800020D8A0EF324F66E100EF420F76E090075
:1011B800F5CF19F00A00F5CF1AF063C017F064C034
:1011C80018F0B3EC0BF017C01FF018C020F0000E99
:1011D800226E0A0E216E1DEC0CF01F50300F00011C
:1011E8000001696F69C017F0D9EC0DF000D000015B
:1011F8000001680700016829D8A401D001D0CDD723
:1012080001D000D025C0F6FF26C0F7FF254A262AC0
:1012180008000001F5CF69F00001696701D001D02D
:1012280040D701D000D01200F2A801D001D098D048
:10123800F2A201D001D094D08BA001D002D0010E2F
:1012480001D0000E056E8B500518FE0B05188B6E2D
:1012580037A201D001D013D03792CD80000E026E94
:10126800000E016EC7EC0DF0000E356E000E316EEB
:10127800000E326E000E336E000E346E6FD0D0EC5E
:101288000DF00150366E000E026E000E016EC7ECB6
:101298000DF020EE36F0090EDF6401D001D022D027
:1012A800500E366001D001D01DD0010E056E066AC1
:1012B800076A086A3550E82A05D0D89005360636F8
:1012C80007360836E82EF9D7051E061E071E081E23
:1012D800055031160650321607503316085034168A
:1012E800352A31D020EE36F04F0EDF6401D001D020
:1012F8001ED08C0E366001D001D019D0010E056EBB
:10130800066A076A086A3550E82A05D0D890053673
:10131800063607360836E82EF9D70550311206503A
:1013280032120750331208503412352A0CD020EEEE
:1013380036F08B0EDF6401D001D005D0000E356E7B
:1013480002D001D000D020EE35F01F0EDF6401D0AE
:1013580001D004D037823780CD9000D0F29200D0EF
:101368001200000E00010001616F000E0001606FA5
:10137800000E00010001636F000E0001626F54D07F
:101388002BC060F02CC061F02BC02DF02CC02EF0CB
:101398002D1E2E1E2D4A2E2A2DC062F02EC063F05F
:1013A8005DD02BC02DF02CC02EF02D1E2E1E2D4AE8
:1013B8002E2A2DC060F02EC061F02BC062F02CC028
:1013C80063F04CD02BC02DF02CC02EF02D1E2E1EFD
:1013D8002D4A2E2A2DC060F02EC061F02BC02DF0B2
:1013E8002CC02EF02D1E2E1E2D4A2E2A2DC062F046
:1013F8002EC063F033D02BC060F02CC061F02BC03E
:1014080062F02CC063F02AD0000E00010001616F69
:10141800000E0001606F000E00010001636F000EF6
:101428000001626F1BD01AD029C02DF02AC02EF0FF
:101438002E50000AD8B401D011D02D50620AD8B469
:10144800B0D7040AD8B49CD70A0AD8B4BBD71E0AA6
:10145800D8B4D1D7010AD8B4D7D700D0000E1E6EA1
:10146800000E1D6E60C01FF061C020F0D5EC0AF0C0
:10147800000E1E6E010E1D6E62C01FF063C020F0CC
:10148800D5EC0AF01200F2A401D001D089D0F2AA5A
:1014980001D001D085D0F29447B401D001D036D024
:1014A800486601D001D008D041504010D8B401D0CE
:1014B80001D002D08A8C00D04804D8A401D001D031
:1014C80008D043504210D8B401D001D002D08A8E3F
:1014D80000D04850020D380EF324D96E000EF420C7
:1014E800DA6EDECF05F0DDCF06F0051E061E054AD2
:1014F800062AFF0E0524446EFF0E0620456E44C0E2
:1015080001F045C002F0BEEC0DF03BD0486601D0BA
:1015180001D008D041504010D8B401D001D002D039
:101528008A9C00D04804D8A401D001D008D04350E8
:101538004210D8B401D001D002D08A9E00D04850C1
:10154800020D380EF324D96E000EF420DA6EDECFC9
:1015580005F0DDCF06F09F0E0524446E150E06201B
:10156800456E44C001F045C002F0BEEC0DF0482ABB
:10157800030E486401D001D004D0000E486E01D09B
:1015880000D047A401D002D0010E01D0000E056E94
:101598000546054647500518FB0B0518476E00D051
:1015A80012002050800A7F0F000ED8B41F5CD8A00C
:1015B80001D001D005D0000E206EFF0E1F6E00D0A6
:1015C800D8901D34216E1E34226E3C0E2124D96E13
:1015D800000E2220DA6EDECF23F0DDCF24F01FC00C
:1015E80017F020C018F0000E1A6E260E196EBCEC0B
:1015F8000CF023501724256E24501820266ED890FE
:101608001D34276E1E34286E380E2724D96E000E1E
:101618002820DA6E25C0DEFF26C0DDFF20501F100F
:10162800D8A401D001D010D0D8901D34216E1E341A
:10163800226E400E2124D96E000E2220DA6E000E92
:10164800DE6E000EDD6E10D0D8901D34216E1E3473
:10165800226E400E2124D96E000E2220DA6E010E71
:10166800DE6E000EDD6E00D0120020EE8CF010EE63
:101678006BF0200EDECFE6FFE82EFCD700016A6F84
:10168800000E000100018B6F00016A512CEC0DF077
:1016980000D06FEC0DF0000100018B6F000100011C
:1016A8008B51D8B401D001D0F4D7100E266E940E09
:1016B800256E00018BC027F0286A4DEC08F0000168
:1016C80000018B51020D00016B0EF324D96E00014D
:1016D800000EF420DA6EDECF2FF0DDCF30F0A8EC6C
:1016E8000DF0D7D7D6D743EF08F0000EAC6E000E3A
:1016F800AB6E17A001D001D001D0AC8817A201D0E1
:1017080001D002D0AC8CAB8C17A401D001D001D091
:10171800AC8E17A601D001D002D0AB8801D0AB8A1D
:1017280017A801D001D001D0AC8417AA01D001D0EC
:1017380001D0AB8617AC01D001D002D09D8A01D070
:101748009D9A17AE01D001D002D09D8801D09D98F6
:1017580018C0AFFF1950B06EAC8AAB8E1200000EE5
:101768001E6E000E1D6E1A501910D8B401D001D08B
:1017780027D01B6E010E1C6E1B5005D0D890193651
:101788001A361C2A00D01AAE01D001D0F7D701D0E2
:1017980000D0D8901D361E361950175C1A501858AC
:1017A800D8A001D001D006D01950175E1A50185A87
:1017B8001D8000D0D8901A3219321C2EEAD700D0DA
:1017C8001DC017F01EC018F012001D6E020E176E15
:1017D8001D501E6E000E186E1E5076EC0CF0CD904B
:1017E80093800F010F015C9193960F010F015C9795
:1017F80094821D6E4D0E176E1D501E6EFF0E186ED4
:101808001E5014EC0DF0000E186EA00E176EDBECD7
:101818000CF01D6E050E176E1D507EEC0DF000D0FD
:101828009EA201D001D0FCD79492F19CF292F2884A
:10183800120022502110D8B401D001D023D0236E39
:10184800010E246E235005D0D89021362236242A42
:1018580000D022AE01D001D0F7D701D000D021505E
:101868001F5C22502058D8A001D001D005D02150AB
:101878001F5E2250205A00D0D89022322132242EC6
:10188800EED700D01FC01FF020C020F0120000EEDD
:1018980040F00A0EEE6AE806FDE19E0EF66E1A0E9C
:1018A800F76E000EF86E00EE8CF010EE20F00900D6
:1018B800F5CFEEFFE550E150FAE1C20EF66E1B0ED1
:1018C800F76E000EF86E00EE31F010EE0FF0090022
:1018D800F5CFEEFFE550E150FAE1000EF86E000199
:1018E80039EF0BF01850F30BCC6E17C019F07F0EC0
:1018F8001916D8901934CD6E000ECF6E000ECE6E2C
:101908009E9017AE01D001D002D09D8001D09D904D
:10191800A49018A401D001D002D0A38001D0A39034
:10192800CCAE01D001D001D0CC86CD801200000E03
:101938001C6ECF0E1B6E1A6E5C0E1D6E1A501A6E40
:10194800CC0E1E6E1A501DC017F01BC018F01CC01C
:1019580019F079EC0BF01EC017F0E9EC0DF03F0E12
:101968008B16948E948C3F0E0F010F015D17120099
:10197800000E1C6E000E1B6E00D017A001D001D007
:1019880005D019501B261A501C2200D0D8901936A1
:101998001A36D8901832173218501710D8A401D018
:1019A80001D0EBD71BC017F01CC018F0120017C0ED
:1019B80019F018C01AF0060ED89019361A36E82E03
:1019C800FBD719C01BF01AC01CF01CC090FF1BC02D
:1019D80019F0D8901932D8901932300E191697503C
:1019E800CF0B1910976E1200F20E4916ABAC01D04E
:1019F80001D007D04990ABA001D001D002D04980D6
:101A080000D0ABA401D001D001D04984ABA201D051
:101A180001D001D04986AECF01F0015000D01200AC
:101A28000C0E976E0F010F015999D8901830080BBA
:101A38000F010F01591393960F010F0159A701D0F8
:101A480001D005D0BA9417C0BBFFBA8400D01200E9
:101A58009BEC0DF08B90949093880F010F015C998B
:101A6800B3EC0DF0E9EC0BF09BEC0CF0D09EF28C93
:101A7800F28E120017507F0BD56E000ED76E000E37
:101A8800D66EF29417AE01D001D002D0F28A01D0FE
:101A9800F29AD58E120073007300730073007300FE
:101AA8006600730073006C007300720073007300AB
:101AB8006200730073009EAA01D001D00BD09DAACA
:101AC80001D001D007D09E9AF8EC0CF0026E8DEC94
:101AD8000DF000D01200176E000E186E175037A0C8
:101AE80001D001D004D0379033C018F000D018507E
:101AF80000D012001750FB0BBA6E000EBC6E9E92FF
:101B080017AE01D001D002D09D8201D09D92BA8437
:101B18001200ACAC01D001D007D0AC9049A201D0E2
:101B280001D002D0AC8000D002C0ADFF1200800E00
:101B38009B6E700ED36E100ED26E00D0D2AE01D056
:101B480001D0FCD700D012002FC029F030C02AF0F5
:101B5800000E2C6EFF0E2B6EB5EC09F012003F0E36
:101B68008A163F0E9316186E9F0E176E18503EEC8D
:101B78000DF0120001C003F002C004F004C0D7FF4A
:101B880003C0D6FF120001C003F002C004F004C075
:101B9800CFFF03C0CEFF1200CECF03F0CFCF04F0AB
:101BA80003C001F004C002F0120000D09EA801D0CA
:101BB80001D0FCD717C0ADFF1200000000000000E4
:101BC8000250465046504650460017C0B8FF120013
:020000040020DA
:08000000FFFFFFFFFFFFFFFF00
:020000040030CA
:0E0000002108513CFF9080FF0FC00FE00F4021
:00000001FF
