:041000003FEF08F0C6
:10100800FACF07F0FBCF08F0E9CF09F0EACF0AF0F2
:10101800E1CF0BF0E2CF0CF0D9CF0DF0DACF0EF024
:10102800F3CF0FF0F4CF10F0F6CF11F0F7CF12F0A6
:10103800F8CF13F0F5CF14F041EC08F014C0F5FF29
:1010480013C0F8FF12C0F7FF11C0F6FF10C0F4FF7D
:101058000FC0F3FF0EC0DAFF0DC0D9FF0CC0E2FFCE
:101068000BC0E1FF0AC0EAFF09C0E9FF08C0FBFFA7
:1010780007C0FAFF110027EF0AF0F2A401D001D04F
:1010880089D0F2AA01D001D085D057B401D001D0BF
:1010980036D0586601D001D008D052505110D8B47B
:1010A80001D001D002D08A8000D05804D8A401D041
:1010B80001D008D054505310D8B401D001D002D078
:1010C8008A8200D05850020D490EF324D96E000EC2
:1010D800F420DA6EDECF05F0DDCF06F0051E061E21
:1010E800054A062AFF0E0524556EFF0E0620566E89
:1010F80055C001F056C002F094EC0AF03BD0586697
:1011080001D001D008D052505110D8B401D001D02C
:1011180002D08A9000D05804D8A401D001D008D0B9
:1011280054505310D8B401D001D002D08A9200D0C4
:101138005850020D490EF324D96E000EF420DA6ED1
:10114800DECF05F0DDCF06F09F0E0524556E150E97
:101158000620566E55C001F056C002F094EC0AF015
:10116800582A030E586401D001D004D0000E586EDE
:1011780001D000D057A401D002D0010E01D0000E3A
:10118800056E0546054657500518FB0B0518576EA2
:10119800F29400D01200000E2E6E000E2D6E000E7E
:1011A800306E000E2F6E4ED029C02DF02AC02EF0C2
:1011B80029C02BF02AC02CF02B1E2C1E2B4A2C2ABF
:1011C8002BC02FF02CC030F057D029C02BF02AC0EC
:1011D8002CF02B1E2C1E2B4A2C2A2BC02DF02CC099
:1011E8002EF029C02FF02AC030F046D029C02BF0AD
:1011F8002AC02CF02B1E2C1E2B4A2C2A2BC02DF07B
:101208002CC02EF029C02BF02AC02CF02B1E2C1E2F
:101218002B4A2C2A2BC02FF02CC030F02DD029C0FF
:101228002DF02AC02EF029C02FF02AC030F024D08B
:10123800000E2E6E000E2D6E000E306E000E2F6EFC
:101248001BD01AD027C02BF028C02CF02C50000A35
:10125800D8B401D011D02B50620AD8B4B6D7040A3A
:10126800D8B4A2D70A0AD8B4C1D71E0AD8B4D7D7D7
:10127800010AD8B4DDD700D0000E1C6E000E1B6E1C
:101288002DC01DF02EC01EF055EC09F0000E1C6E8E
:10129800010E1B6E2FC01DF030C01EF055EC09F07A
:1012A80012001E50800A7F0F000ED8B41D5CD8A013
:1012B80001D001D005D0000E1E6EFF0E1D6E00D0AD
:1012C800D8901B341F6E1C34206E4D0E1F24D96E0F
:1012D800000E2020DA6EDECF21F0DDCF22F01DC017
:1012E80015F01EC016F0000E186E260E176E08ECCC
:1012F8000AF021501524236E22501620246ED8900F
:101308001B34256E1C34266E490E2524D96E000E1A
:101318002620DA6E23C0DEFF24C0DDFF1E501D101C
:10132800D8A401D001D010D0D8901B341F6E1C3423
:10133800206E510E1F24D96E000E2020DA6E000E8A
:10134800DE6E000EDD6E10D0D8901B341F6E1C347C
:10135800206E510E1F24D96E000E2020DA6E010E69
:10136800DE6E000EDD6E00D01200336E040E3E6E8F
:10137800335020EE3FF010EE34F00A0EDECFE6FFD9
:10138800E82EFCD75EEC0AF000D081B801D001D07D
:101398000CD03E2A040E3E6401D001D006D0336E34
:1013A800000E3E6E335001D000D03E50020D340E78
:1013B800F324D96E000EF420DA6EDECF31F0DDCFE3
:1013C80032F076EC0AF08BA001D002D0010E01D0E9
:1013D800000E336E8B503318FE0B33188B6E336E42
:1013E800C80E156E33506AEC0AF0336EC80E156ECF
:1013F80033506AEC0AF0336EC80E156E33506AEC3F
:101408000AF0C3D73FEF08F0000E1A6E000E196EEF
:1014180000D015A001D001D005D0175019261850BA
:101428001A2200D0D89017361836D89016321532AE
:1014380016501510D8A401D001D0EBD719C015F05B
:101448001AC016F0120000EE51F0080EEE6AE80617
:10145800FDE1160EF66E150EF76E000EF86E00EE34
:101468003FF010EE12F00900F5CFEEFFE550E15025
:10147800FAE10001B9EF09F015507F0BD56E000EA7
:10148800D76E000ED66EF29415AE01D001D002D000
:10149800F28A01D0F29AD58E1200800E9B6E700EE1
:1014A800D36E100ED26E00D0D2AE01D001D0FCD7D0
:1014B80000D0120051EC0AF08B9094909388FC0EA7
:1014C8008A16FC0E931681EC0AF012000D0E166EA9
:1014D800FB0EE82EFED7162EFCD700D0152EF6D719
:1014E80000D0120031C027F032C028F0000E2A6E5A
:1014F800FF0E296ECFEC08F01200166E9F0E156EC7
:10150800165040EC0AF0D09EF28CF28E1200660063
:1015180062006C00720073005046504650465046B8
:1015280001C003F002C004F004C0D7FF03C0D6FF17
:0215380012009F
:020000040020DA
:08000000FFFFFFFFFFFFFFFF00
:020000040030CA
:0E0000002108513CFF9180FF0FC00FE00F4020
:00000001FF
