:041000003FEF08F0C6
:10100800FACF26F0FBCF27F0E9CF28F0EACF29F076
:10101800E1CF2AF0E2CF2BF0D9CF2CF0DACF2DF0A8
:10102800F3CF2EF0F4CF2FF0F6CF30F0F7CF31F02A
:10103800F8CF32F0F5CF33F04EEC0CF033C0F5FFBB
:1010480032C0F8FF31C0F7FF30C0F6FF2FC0F4FF01
:101058002EC0F3FF2DC0DAFF2CC0D9FF2BC0E2FF52
:101068002AC0E1FF29C0EAFF28C0E9FF27C0FBFF2B
:1010780026C0FAFF110019EF0FF001000A00640002
:10108800E80310272533757C0025750D0A0000003C
:101098000001000E00010001776F0001700E0001D1
:1010A800766F7ED1000100018051250AD8B401D0A5
:1010B80001D006D080C060F0000109EC10F070D1BA
:1010C800000E000100017F6F000E00017E6F00011D
:1010D800726F000E00010001756F0001725100016E
:1010E8006EC0F6FF00016FC0F7FF08000001F5CFE2
:1010F80060F00001F4EC0EF0D8A001D001D059D076
:10110800000E000100017F6F000E00017E6F00D00D
:101118007EC060F07FC061F0000E00010001636FC7
:101128000A0E0001626F000164EC0EF0000160C05D
:101138007EF0000161C07FF000016EC0F6FF000183
:101148006FC0F7FF0800F5CF72F0D00E00017225CE
:101158000001736F0001746BFF0E0001742300011E
:101168007351000100017E27000174510001000144
:101178007F23000100016E4B6F2B00016EC0F6FF4C
:1011880000016FC0F7FF08000001F5CF60F0000113
:10119800F4EC0EF0D8B001D001D0BAD70AD009D0FB
:1011A80008D013D1FDD0C00E00010001751318D06E
:1011B80017D000016EC0F6FF00016FC0F7FF0001F5
:1011C80000016E4B6F2B08000001F5CF80F0000185
:1011D8008051000AD8B4F9D0750AD8B4E4D7E0D061
:1011E80076C0D9FF77C0DAFF0001DECF78F00001C2
:1011F800DDCF79F0020E000100017627000E000114
:1012080077230001726F010E00010001806F000159
:101218007251000100018051050AD8A401D001D003
:1012280002D02DD02CD0000100018051020D820E79
:10123800F324F66E100EF420F76E0900F5CF72F065
:101248000900F5CF73F00001725100010001785DCB
:1012580000017351000100017959D8B001D001D0C3
:1012680002D00DD00CD000010001802B000100013C
:101278008051050AD8A401D001D0D5D700D0800E5E
:101288000001000180BF7F0E726F000100017E51D6
:1012980000010001805D000100017F51800A00010A
:1012A8007259D8B001D001D00ED000010001805190
:1012B800000100017E5F000E000180BFFF0E0001EB
:1012C80000017F5B08D0000E000100017F6F000E57
:1012D80000017E6F00D0000100017F517E11D8B45B
:1012E80001D001D019D000D00001726F200E00018A
:1012F8000001606F00017251000109EC10F000015B
:1013080000017E07D8A07F0700017F517E11D8A475
:1013180001D001D0E9D700D080C07DF036D00001DF
:1013280000017D51020D820EF324F66E100EF4209A
:10133800F76E09000001F5CF62F00A000001F5CF51
:1013480063F078C060F079C061F00001E8EC0CF05F
:10135800000160C068F0000161C069F0000E000182
:1013680000016B6F0A0E00016A6F000148EC0DF076
:10137800000100016851300F00010001806F80C03A
:1013880060F0000109EC10F000D0000100017D07B9
:1013980000017D29D8A401D001D0C1D701D000D047
:1013A80000016EC0F6FF00016FC0F7FF00010001E9
:1013B8006E4B6F2B08000001F5CF80F000018067AD
:1013C80001D001D06FD601D000D01200000E186EE7
:1013D800110E176E06D12150250AD8B401D001D0BC
:1013E80005D021C001F011EC10F0FBD0000E206EEA
:1013F800000E1F6E136E000E166E13500FC0F6FF10
:1014080010C0F7FF0800F5CF01F072EC0FF0D8A07C
:1014180001D001D03CD0000E206E000E1F6E00D00F
:101428001FC001F020C002F0000E046E0A0E036E09
:101438003AEC0FF001C01FF002C020F00FC0F6FF19
:1014480010C0F7FF0800F5CF13F0D00E1324146E68
:10145800156AFF0E152214501F26155020220F4A18
:10146800102A0FC0F6FF10C0F7FF0800F5CF01F0F3
:1014780072EC0FF0D8B001D001D0D2D708D007D085
:1014880006D0BED0AED0C00E161212D011D00FC0EA
:10149800F6FF10C0F7FF0F4A102A0800F5CF21F019
:1014A8002150000AD8B4ACD0750AD8B4ECD799D07A
:1014B80017C0D9FF18C0DAFFDECF19F0DDCF1AF058
:1014C800020E1726000E1822136E010E216E1350FD
:1014D8002150050AD8A401D001D002D021D020D0B3
:1014E8002150020D820EF324F66E100EF420F76ED2
:1014F8000900F5CF13F00900F5CF14F01350195C6B
:1015080014501A58D8B001D001D002D009D008D050
:10151800212A2150050AD8A401D001D0E1D700D052
:10152800800E21BE7F0E136E1F50215C2050800A52
:101538001358D8B001D001D007D021501F5E000E3B
:1015480021BEFF0E205A05D0000E206E000E1F6E21
:1015580000D020501F10D8B401D001D011D000D035
:10156800136E200E016E135011EC10F01F06D8A058
:10157800200620501F10D8A401D001D0F1D700D0E8
:1015880021C01EF026D01E50020D820EF324F66EE6
:10159800100EF420F76E0900F5CF03F00A00F5CF1E
:1015A80004F019C001F01AC002F02EEC0EF001C0D0
:1015B80009F002C00AF0000E0C6E0A0E0B6EC6ECA3
:1015C8000EF00950300F216E21C001F011EC10F01F
:1015D80000D01E061E28D8A401D001D0D4D701D02F
:1015E80000D00FC0F6FF10C0F7FF0F4A102A0800FE
:1015F800F5CF21F0216601D001D0EDD601D000D081
:101608001200000E00010001796F000E0001786FD2
:10161800000E000100017B6F000E00017A6F60D0A0
:1016280074C078F075C079F0000174C076F00001DC
:1016380075C077F00001761F771F764B772B76C041
:101648007AF077C07BF06AD0000174C076F00001B0
:1016580075C077F00001761F771F764B772B76C021
:1016680078F077C079F074C07AF075C07BF056D006
:10167800000174C076F0000175C077F00001761F94
:10168800771F764B772B76C078F077C079F000011A
:1016980074C076F0000175C077F00001761F771FDF
:1016A800764B772B76C07AF077C07BF037D074C052
:1016B80078F075C079F074C07AF075C07BF02ED0E0
:1016C800000E00010001796F000E0001786F000E16
:1016D800000100017B6F000E00017A6F1FD01ED041
:1016E800000172C076F0000173C077F000017751F5
:1016F800000AD8B401D012D000017651620AD8B4D9
:10170800A3D7040AD8B48CD70A0AD8B4B1D71E0A0A
:10171800D8B4CDD7010AD8B4D3D700D0000E000171
:101728000001676F000E0001666F78C068F079C02D
:1017380069F00001AFEC0BF0000E00010001676FCB
:10174800010E0001666F7AC068F07BC069F0000185
:10175800AFEC0BF01200000100016951800A7F0F05
:10176800000ED8B4685DD8A001D001D008D0000E12
:1017780000010001696FFF0E0001686F00D0D8906A
:1017880000010001663500016A6F0001000167353C
:1017980000016B6F0001C70E00016A25D96E0001B8
:1017A800000E00016B21DA6EDECF6CF0DDCF6DF03C
:1017B80068C060F069C061F0000E00010001636F4D
:1017C800260E0001626F000164EC0EF000016C51FE
:1017D80000010001602500016E6F00016D510001DC
:1017E8000001612100016F6FD8900001000166358A
:1017F8000001706F0001000167350001716F000181
:10180800C30E00017025D96E0001000E0001712180
:10181800DA6E6EC0DEFF6FC0DDFF000100016951A6
:101828006811D8A401D001D01AD0D89000010001C5
:10183800663500016A6F00010001673500016B6FB2
:101848000001D00E00016A25D96E0001000E0001CA
:101858006B21DA6E000EDE6E000EDD6E1AD0D890A7
:1018680000010001663500016A6F0001000167355B
:1018780000016B6F0001D00E00016A25D96E0001CE
:10188800000E00016B21DA6E010EDE6E000EDD6EB9
:1018980000D012008BA001D002D0010E01D0000EA2
:1018A800226E8B502218FE0B22188B6EF2A801D0E4
:1018B80001D089D0F2A201D001D085D0D59A00EC10
:1018C80010F001503B6E000E026E000E016EF7EC38
:1018D8000FF0100E106E8C0E0F6E3BC011F0126AD6
:1018E800EAEC09F03B50D8B401D001D02AD0100E50
:1018F8003B6001D001D025D0010E226E236A246AF4
:10190800256A3A50E82A05D0D8902236233624365C
:101918002536E82EF9D7221E231E241E251E225006
:1019280000010001CC17235000010001CD172450FD
:1019380000010001CE17255000010001CF173A2AF7
:101948002BD00F0E3B6401D001D026D01F0E3B6078
:1019580001D001D021D0010E226E236A246A256AA3
:101968003A50E82A05D0D890223623362436253630
:10197800E82EF9D7225000010001CC1323500001B2
:101988000001CD13245000010001CE1325500001A1
:101998000001CF133A2A00D01F0E3A6401D001D0BB
:1019A80010D0D58A000E3A6E000E026E000E016E3F
:1019B800F7EC0FF0100E106E930E0F6EEAEC09F0B4
:1019C80000D0F29200D01200000E00010001666FF4
:1019D800000E0001656F0001000163516211D8B467
:1019E80001D001D04CD00001646F010E000100014C
:1019F800676F000164510AD0000100010001D8900E
:101A08006237633700010001672B00D00001000135
:101A180063AF01D001D0F0D701D000D000010001A0
:101A28000001D89065376637000100016251000156
:101A38000001605D0001000163510001000161596E
:101A4800D8A001D001D010D00001000162510001DE
:101A58000001605F00010001635100010001615B4A
:101A680000010001658100D0000100010001D8904B
:101A78006333623300010001672FD0D700D065C0FF
:101A880060F066C061F01200000100016B516A113C
:101A9800D8B401D001D043D000016C6F010E000111
:101AA80000016D6F00016C510AD0000100010001B6
:101AB800D8906A376B37000100016D2B00D0000108
:101AC80000016BAF01D001D0F0D701D000D00001E8
:101AD80000016A5100010001685D000100016B51BD
:101AE800000100016959D8A001D001D00DD0000132
:101AF80000016A5100010001685F000100016B519B
:101B080000010001695B00D0000100010001D890CC
:101B18006B336A33000100016D2FD9D700D068C03C
:101B280068F069C069F01200000EAC6E000EAB6E72
:101B38000001000160A101D001D001D0AC880001F2
:101B4800000160A301D001D002D0AC8CAB8C0001A5
:101B5800000160A501D001D001D0AC8E00010001C8
:101B680060A701D001D002D0AB8801D0AB8A0001B8
:101B7800000160A901D001D001D0AC8400010001AE
:101B880060AB01D001D001D0AB860001000160AD8F
:101B980001D001D002D09D8A01D09D9A0001000198
:101BA80060AF01D001D002D09D8801D09D9861C05E
:101BB800AFFF000100016251B06EAC8AAB8E12001B
:101BC80020EEA3F010EE82F0200EDECFE6FFE82E26
:101BD800FCD70001816F000E00010001A26F000117
:101BE8008151CBEC0FF000D059EC0FF0000100014F
:101BF800A26F00010001A251D8B401D001D0F4D7DE
:101C0800100E000100016F6F910E00016E6F000150
:101C18000001A2C070F000010001716B00014CECE2
:101C280008F000010001A251020D0001820EF32408
:101C3800D96E0001000EF420DA6E0001DECF7CF0D0
:101C48000001DDCF7DF00001DBEC0FF0CDD7CCD764
:101C58003FEF08F0000E086E000E076E04500310E8
:101C6800D8B401D001D027D0056E010E066E0550FC
:101C780005D0D89003360436062A00D004AE01D029
:101C880001D0F7D701D000D0D890073608360350D6
:101C9800015C04500258D8A001D001D006D00350EE
:101CA800015E0450025A078000D0D89004320332F3
:101CB800062EEAD700D007C001F008C002F01200D3
:101CC800000E00010001656F000E0001646F00D076
:101CD8000001000160A101D001D00DD00001000178
:101CE80062510001000164270001000163510001F5
:101CF8000001652300D0000100010001D89062377F
:101D08006337000100010001D8906133603300019E
:101D1800000161516011D8A401D001D0D9D764C0A5
:101D280060F065C061F01200000E00010001656FEF
:101D3800CF0E0001646F0001636F5C0E00010001AB
:101D4800666F000163510001636FCC0E0001000152
:101D5800676F0001635166C060F064C061F065C0E0
:101D680062F0000198EC0DF067C060F0000119EC1A
:101D780010F03F0E8B16948E948C3F0E0F010F01BE
:101D88005D1712000C500B10D8B401D001D023D02D
:101D98000D6E010E0E6E0D5005D0D8900B360C3618
:101DA8000E2A00D00CAE01D001D0F7D701D000D058
:101DB8000B50095C0C500A58D8A001D001D005D0AE
:101DC8000B50095E0C500A5A00D0D8900C320B32D6
:101DD8000E2EEED700D009C009F00AC00AF0120092
:101DE8000001616F000E00010001626F0001615186
:101DF8003A0E00010001606101D001D010D02F0E11
:101E080000010001606501D001D009D00001616FB7
:101E1800010E00010001626F0001615100D062C033
:101E280061F00001613100D0120000EECCF0080E24
:101E3800EE6AE806FDE100EE34F0080EEE6AE80608
:101E4800FDE16C0EF66E1F0EF76E000EF86E00EEDA
:101E5800A3F010EE29F00900F5CFEEFFE550E150B0
:101E6800FAE1000EF86E0001E4EF0DF0000E066EC8
:101E7800000E056E00D001A001D001D005D003509E
:101E880005260450062200D0D89003360436D89090
:101E98000232013202500110D8A401D001D0EBD790
:101EA80005C001F006C002F012000001606F000ECC
:101EB80000010001616F0001605100010001CBA128
:101EC80001D001D006D000010001CB91CEC061F055
:101ED80000D000010001615100D01200026E000E16
:101EE800036E02503A0E016001D001D00AD02F0EC5
:101EF800016401D001D005D0026E010E036E0250BC
:101F080000D003C002F0023000D012000001616F5F
:101F1800710E00010001606F000161510001A1EC28
:101F28000FF093800F010F015C9193960F010F0141
:101F38005C97F19CF292F288120000010001605156
:101F48007F0BD56E000ED76E000ED66EF294000190
:101F5800000160AF01D001D002D0F28A01D0F29A1C
:101F6800D58E12007300730073007300730066004F
:101F7800730073006C0073007200730073006200DA
:101F88007300730050465046504650460200EAEC33
:101F98000FF08B90949093880F010F015C998AEC55
:101FA8000FF098EC0EF0D08EF28CF28E12007CC0FE
:101FB80072F07DC073F0000E00010001756FFF0E16
:101FC8000001746F000105EC0BF01200800E9B6E8F
:101FD800700ED36E100ED26E00D0D2AE01D001D0EA
:101FE800FCD700D0120001C003F002C004F004C006
:101FF800D7FF03C0D6FF1200D6CF03F0D7CF04F027
:1020080003C001F004C002F0120000D09EA801D065
:1020180001D0FCD760C0ADFF120000D09EA801D04F
:1020280001D0FCD701C0ADFF120060C0B8FF12009C
:020000040020DA
:08000000FFFFFFFFFFFFFFFF00
:020000040030CA
:0E0000002108513CFF9080FF0FC00FE00F4021
:00000001FF
