:0400000053EF00F0CA
:10000800FACF38F0FBCF39F0E9CF3AF04BEF10F0E8
:10001800D8CF27F0E8CF28F0E0CF29F0FACF2AF0A0
:10002800FBCF2BF0E9CF2CF0EACF2DF0E1CF2EF06B
:10003800E2CF2FF0D9CF30F0DACF31F0F3CF32F072
:10004800F4CF33F0F6CF34F0F7CF35F0F8CF36F001
:10005800F5CF37F00CEF20F037C0F5FF36C0F8FFCA
:1000680035C0F7FF34C0F6FF33C0F4FF32C0F3FFEA
:1000780031C0DAFF30C0D9FF2FC0E2FF2EC0E1FF48
:100088002DC0EAFF2CC0E9FF2BC0FBFF2AC0FAFFF6
:1000980029C0E0FF28C0E8FF27C0D8FF1000C5EF3F
:0200A80011F055
:10080000BE080C086908400840086E0F34034D000C
:100810006900630072006F00630068006900700087
:10082000200054006500630068006E006F006C00DB
:100830006F0067007900200049006E0063002E0001
:1008400009022900010100C032090400000203006E
:100850000000092111010001221D0007058103404C
:100860000001070501034000012603480049004438
:10087000002000550053004200200042006F006F2E
:100880000074006C006F0061006400650072000677
:1008900000FF0901A10119012940150026FF00757B
:1008A0000895408100190129409100C01201000201
:1008B00000000008D8043C0002000102000104030B
:1008C00009040000176601D001D036D304010401E9
:1008D00008BF01D001D04AD30001000E0001000181
:1008E000E16F0001600E0001E06F0001EB6F400E50
:1008F00000010001E26F0001EB510001E2EC0CF09D
:100900000001EB6F010E176E0001EB510001EB6F60
:10091000000E00010001EF6F0001EB513F0E0001DE
:100920000001EF6501D001D002D020D31FD3000118
:100930000001EF51010D0001A00EF324D96E00015A
:10094000000EF420DA6E000EDF6E00010001EF2BC6
:100950003F0E00010001EF6501D001D0E8D706D3BA
:1009600005D304D3E9D20001EB6F020E00010001B0
:10097000A06F0001EB510001EB6F3A0E0001000186
:10098000A16F0001EB510001EB6F010E00010001AE
:10099000A26F0001EB510001EB6F010E000100019D
:1009A000A36F0001EB51000E00010001A46F400E87
:1009B0000001A56F000E0001A66F000E0001A76FD9
:1009C000000E00010001A86F400E0001A96F000E8B
:1009D0000001AA6F000E0001AB6F0001EB6F030E68
:1009E00000010001AC6F0001EB51000E000100019D
:1009F000AD6F000E0001AE6F300E0001AF6F000E44
:100A00000001B06F0E0E00010001B16F000E000179
:100A1000B26F000E0001B36F000E0001B46F000151
:100A2000EB6F010E00010001B56F0001EB51000EEC
:100A300000010001B66F000E0001B76F200E00012B
:100A4000B86F000E0001B96F080E00010001BA6F07
:100A5000000E0001BB6F000E0001BC6F000E000114
:100A6000BD6F00010001BE690001EB6F020E0001C5
:100A70000001BE6F0001EB51000E00010001BF6FCD
:100A8000000E0001C06FF00E0001C16F000E0001EA
:100A9000C26F000E00010001C36F010E0001C46FA0
:100AA000000E0001C56F000E0001C66F00010001BD
:100AB000C769040104010CBF01D001D057D2000165
:100AC000000E00010001E16F0001A00E0001E06FC7
:100AD0000001EB6F400E00010001E26F0001EB51DD
:100AE00000014AEC0DF00001EB6F000E176E0001E3
:100AF000EB513CD23BD20001EB6F010E196E0001AD
:100B0000EB5100010001616701D001D006D0000166
:100B1000EB6F000E196E0001EB510001EB6F000E40
:100B2000176E0001EB5122D2010E106E000E0F6EF7
:100B3000000E0F5C020E1058D8A001D001D002D0D8
:100B400036D035D01AEC12F0060E0001EB6F0FC054
:100B5000ECF010C0EDF00001EE6B0001EB2905D0C8
:100B6000D8900001EC37ED37EE37E82EF9D7ECC01E
:100B7000F6FFEDC0F7FFEEC0F8FF940EA66E000181
:100B8000EB6FB50E00010001E06F0001EB510001B9
:100B9000AAEC11F00FEC0EF00F4A102A000E0F5CB9
:100BA000020E1058D8A001D001D0CCD700D000013F
:100BB000EB6F000E00010001EF6F0001EB5100D060
:100BC000EFC0A9FFA868040EA66E0FEC0EF000019E
:100BD000EB6FB50E00010001E06F0001EB51000169
:100BE000AAEC11F000010001EF3FEAD700D0000E9F
:100BF000F66E000EF76E200EF86E940EA66E0001D3
:100C0000EB6FB50E00010001E06F0001EB51000138
:100C1000AAEC11F00001EB6F000E176E0001EB5112
:100C2000A5D1000100016351300AD8A401D001D040
:100C30000ED0196601D001D003D062EC0EF000D0C6
:100C40000001EB6F000E176E0001EB518FD1000118
:100C500000016351F00AD8A401D001D009D0FBEC07
:100C60000EF00001EB6F000E176E0001EB517ED10C
:100C7000FF0E0418FF0ED8B40518FF0ED8B40618DE
:100C8000D8A401D001D007D061C004F062C005F043
:100C900063C006F000D0000120EE61F00450DE18C1
:100CA00005E10550DE1802E10650DE18D8A401D097
:100CB00001D05BD00001EB6F000E00010001EF6F6F
:100CC0000001EB5146D00001000165510001EB6FBE
:100CD000EC6B0001EB1FEC1FEB4BEC2B0001000158
:100CE000EF510001EB250001ED6F00010001000E46
:100CF000EC21EE6F400E0001ED27000EEE23000107
:100D0000600E0001ED25D96E0001000E0001EE21FC
:100D1000DA6E1850010D0101000EF324E16E01019D
:100D2000010EF420E26EDFCFE7FF182A010E042641
:100D3000000E0522000E06221850200AD8A401D069
:100D400001D003D02AEC09F000D000010001EF2B04
:100D500000D000010001655100010001EF5DD8A045
:100D600001D001D0B0D701D000D00001EB6F000E50
:100D7000176E0001EB51FAD02AEC09F0FF0E046E59
:100D8000FF0E056EFF0E066E0001EB6F000E176E74
:100D90000001EB51EBD00001EB6F070E00010001E9
:100DA000A06F0001EB5161C0A1F062C0A2F063C06E
:100DB000A3F064C0A4F065C0A5F061C0F6FF62C0F6
:100DC000F7FF63C0F8FF0001EB6F000E00010001A8
:100DD000EF6F0001EB5181D0000100016351F00A77
:100DE000D8A401D001D033D000010001615100012D
:100DF0000001EF25A96E000EA66EA680000100017D
:100E000065510001EB6FEC6B0001EB1FEC1FEB4B2E
:100E1000EC2B00010001EF510001EB250001ED6F0B
:100E200000010001000EEC21EE6F400E0001ED27E5
:100E3000000EEE230001A00E0001ED25D96E000189
:100E4000000E0001EE21DA6EA8CFDFFF42D01CECCD
:100E500012F0F850300AD8A401D001D011D0F650C9
:100E6000050AD8A401D001D002D0F56800D0F65010
:100E7000080AD8A401D001D003D0F56801D000D071
:100E80000001000165510001EB6FEC6B0001EB1FED
:100E9000EC1FEB4BEC2B00010001EF510001EB25A7
:100EA0000001ED6F00010001000EEC21EE6F400E1D
:100EB0000001ED27000EEE230001A00E0001ED253C
:100EC000D96E0001000E0001EE21DA6EF5CFDFFFD2
:100ED00000D000010001EF2B00D00001000165519E
:100EE00000010001EF5DD8A001D001D075D7040149
:100EF00004010CBF01D001D039D00001000E000167
:100F00000001E16F0001A00E0001E06F0001EB6F36
:100F1000400E00010001E26F0001EB5100014AECBC
:100F20000DF00001EB6F000E176E0001EB511ED0AB
:100F30001DD02CEC11F01AD0000100016051020A02
:100F4000D8B411D5010AD8B4D6D5070AD8B4ECD58F
:100F5000010AD8B466D6030AD8B40ED7010AD8B4A9
:100F60001AD70F0AD8B4E5D701D000D01200050176
:100F7000050100511F0B0001E06F0001E005D8B42E
:100F800001D001D002D0B7D0B6D00501050104517F
:100F9000D8B401D001D002D0AED0ADD0050105014A
:100FA0000151060AD8A401D001D042D032D031D0AC
:100FB0000001E06F020E1B6E0001E0512504D8A471
:100FC00001D001D004D0080E0B6E520E0A6E000E36
:100FD000226E090E216E2AD00001E06F020E1B6EF8
:100FE0000001E0512504D8A401D001D005D0080E9D
:100FF0000B6E8F0E0A6E00D02504D8A401D001D04C
:1010000015D0000E226E1D0E216E10D00FD00ED006
:101010000DD0050105010351210AD8B4C9D7030A2F
:10102000D8B4DAD7010AD8B401D000D0208200D0D9
:10103000050105010039E832030B0001E06F0001F2
:10104000E005D8B401D001D040D055D054D03DD027
:101050001EEC12F050D01FEC12F04DD00001E06FEA
:10106000020E1B6E0001E051000E0B6E240E0A6E84
:1010700020920001E06F010E216E0001E0513BD093
:101080000001E06F020E1B6E0001E05103C524F069
:1010900032D00001E06F020E1B6E0001E051000E25
:1010A0000B6E230E0A6E20920001E06F010E216E7E
:1010B0000001E05120D00001E06F020E1B6E000124
:1010C000E05102C523F017D016D0050105010151EA
:1010D000010AD8B4BDD7030AD8B4C0D7010AD8B41E
:1010E000D8D70A0AD8B4B7D7030AD8B4C9D7010ADF
:1010F000D8B4E1D700D01200080E215C000E2258AF
:10110000D8B001D001D01DD021C0E2F022C0E3F060
:101110001E6601D001D007D00001E06F010E1E6EE7
:101120000001E05116D01E04D8A401D001D011D086
:101130000001E06F020E1E6E0001E0510AD009D0DE
:1011400008D0000E00010001E36F080E0001E26FFD
:1011500000D004010401049304010401049100017E
:101160000001E351040104010413E2C005F400018D
:10117000E2C0E0F00001E3C0E1F00001E01FE11F88
:10118000E04BE12B21500001E025216E22500001AF
:10119000E121226E0601060E086E0601000E076EA2
:1011A00020A201D001D04BD020D01FD00AC0F6FF22
:1011B0000BC0F7FFF86A07C0D9FF08C0DAFF070EB7
:1011C000F76403D00800F55005D0F6CFE9FFF7CF5C
:1011D000EAFFEF50DF6E074A082A0A4A0B2A00018D
:1011E0000001E207D8A0E30700D000010001E351AD
:1011F000E211D8A401D001D0D9D72BD02AD01FD04A
:101200000AC0F6FF0BC0F7FFF86A07C0D9FF08C095
:10121000DAFF070EF76403D00800F55005D0F6CFCB
:10122000E9FFF7CFEAFFEF50DF6E074A082A0A4AC4
:101230000B2A00010001E207D8A0E30700D000015B
:101240000001E351E211D8A401D001D0D9D701D0D7
:1012500000D012000001E16F000E146E0001E15198
:1012600018500001E16FE26BE36B0001E11FE21F28
:10127000E31FE12B000EE223E32304500001E125EC
:10128000F66E00010550E221F76E00010650E321E1
:10129000F86EF6501F0B156EE00EF6160001E16FAA
:1012A000000E166E0001E1511F0E166401D001D030
:1012B00002D027D026D0156601D001D019D0185001
:1012C000D8B401D001D010D01450010D0101000E8E
:1012D000F324D96E0101010EF420DA6EDF50F56EB1
:1012E0000D00142A180607D0F5680D0004D003D0AD
:1012F000F5680D001506162A1F0E166401D001D0E0
:10130000DAD7010EF65E000EF75A000EF85AA40E58
:10131000A66E0001E16FB50E00010001E06F000153
:10132000E1510001AAEC11F00001E16F000E166E10
:101330000001E15121D0165014C0E1F00001E26B30
:101340000001E127000EE2230101000E0001E1256A
:10135000D96E0101010E0001E221DA6E1650010D75
:101360000101000EF324E16E0101010EF420E26E92
:10137000DFCFE7FF162A00D01850165CD8A001D0A6
:1013800001D0D9D700D01200050105010039E8329B
:10139000030B0009D8B401D001D05FD083D082D034
:1013A0005CD00001E46F010E1B6E0001E4510001EE
:1013B000E46F040E1F6E0001E45174D053EC0AF088
:1013C00071D08AEC0FF06ED00001E46F010E1B6E3D
:1013D0000001E451000E0B6E250E0A6E20920001F2
:1013E000E46F010E216E0001E4515CD069EC0BF05A
:1013F00059D000D0DEEC0AF055D00001E46F010EA8
:101400001B6E0001E451050105010451010D260E7A
:10141000F3240A6E000EF4200B6E20920001E46F9C
:10142000010E216E0001E4513DD00001E46F010E78
:101430001B6E0001E451050105010451010D260E4A
:10144000F324D96E000EF420DA6E050102C5DFFF29
:1014500029D028D027D026D025D00501050101515B
:10146000000AD8B4C3D7010AD8B4C4D7020AD8B482
:10147000C1D7060AD8B495D7030AD8B49FD7010AB2
:10148000D8B410D00F0AD8B49FD7010AD8B499D7CE
:10149000030AD8B4B2D7010AD8B4C7D7070AD8B458
:1014A00001D000D01200050105010051800AD8A426
:1014B00001D001D082D072D071D00001E06F010E56
:1014C0001B6E0001E051080E0B6EAC0E0A6E000E92
:1014D000226E120E216E6FD00001E06F010E1B6EA6
:1014E0000001E051050105010251020D060EF32431
:1014F000F66E080EF420F76E0900F5CF0AF00A0028
:10150000F5CF0BF0020E0A240001E06F000E0B2055
:101510000001E16FE0C0F6FFE1C0F7FFF86A070ED7
:10152000F76407D00900F5CF21F00900F5CF22F0CC
:1015300008D0F6CFE9FFF7CFEAFFEECF21F0EECFEC
:1015400022F039D00001E06F010E1B6E0001E05166
:10155000050105010251020D000EF324F66E080E7E
:10156000F420F76E0900F5CF0AF00A00F5CF0BF072
:101570000A50F66EE96E070EEA6E0B50EA6403D06D
:10158000EA6EEF5003D0F76E0800F5500001E06FEF
:101590000001E051216E226A0ED00DD00501050137
:1015A0000351010AD8B489D7030AD8B495D7010AE0
:1015B000D8B4C8D700D0208200D0120005010501A0
:1015C0000205D8A401D001D01BD0050105010051AE
:1015D0001F0B0009D8A401D001D012D00001E06F88
:1015E000010E1B6E0001E051050105010151030AC6
:1015F000D8A401D001D002D0208002D0209000D009
:1016000005010501026701D001D062D00501050185
:1016100000511F0B020AD8A401D001D059D00501F6
:10162000050104510F0B0009D8B401D001D050D0EE
:101630000001E06F010E1B6E0001E0510501050184
:1016400004510F0B0001E06F0001E051080D04018F
:10165000000EF3240001E16F0401040EF4200001E8
:10166000E26F050105010435E836010B0001E36F67
:101670000001E351040DF3500001E125076EF45021
:101680000001E221086E050105010151030AD8A4F9
:1016900001D001D007D007C0D9FF08C0DAFF840EFF
:1016A000DF6E16D00501050104AF01D001D007D0CF
:1016B00007C0D9FF08C0DAFF400EDF6E09D007C0AF
:1016C000D9FF08C0DAFF880EDF6E02D001D000D04B
:1016D0001200000E06010601006F000E0601060151
:1016E000016F58D00001E06F010E1B6E0001E05148
:1016F00006010601008100D020A001D001D058D001
:1017000006010601008354D053D00001E06F010EA2
:101710001B6E0001E0514CD00001E06F010E1B6E0A
:101720000001E0510501050104510F0B0001E06FBC
:101730000001E051080D0401000EF3240001E16FE7
:101740000401040EF4200001E26F050105010435D7
:10175000E836010B0001E36F0001E351040DF35083
:101760000001E125076EF4500001E221086E07C078
:10177000D9FF08C0DAFFDF500001E06F0001E0A5EB
:1017800001D001D015D0010E06010601006F10D066
:101790000FD00ED00501050100511F0B000AD8B46F
:1017A000A1D7010AD8B4B1D7030AD8B4B5D700D0AD
:1017B0001B04D8A401D001D00ED00601060E0B6E7A
:1017C0000601000E0A6E20920001E06F020E216EEB
:1017D0000001E05100D01200616601D001D066D056
:1017E0006596040104010031E8320F0B0D0AD8A4FC
:1017F00001D001D057D0000E0001E76F060EE86F50
:10180000040124EE02F00001DE52E851DD18E7C0C9
:10181000E8FFD8B4DF18D8A401D001D040D005012A
:10182000050E04010401036F0501000E0401026F9F
:101830000001E76F000E00010001E96F0001E751B0
:10184000070E00010001E96501D001D002D027D0C8
:1018500026D000010001E951010D0601000EF3241C
:10186000D96E0601060EF420DA6E00010001E9517E
:10187000010D0501000EF324E16E0501050EF420B3
:10188000E26EDFCFE7FF00010001E92B070E000148
:101890000001E96501D001D0DCD701D000D0AEEC69
:1018A0000DF012D010EC10F00FD00ED06150040AE1
:1018B000D8A401D001D004D0659646EC0FF004D036
:1018C000000E04D003D000D0010E00D012006098AA
:1018D0001B6601D001D016D0080E04010401016F6F
:1018E0000501050E04010401036F0501000E04014A
:1018F000026F840E04010401006F840E04010401D0
:10190000046F5FD00501050100AF01D001D038D0D0
:10191000215005010501065D225005010501075909
:10192000D8B001D001D005D006C521F007C522F0FE
:1019300000D07CEC08F00001E46F010E1C6E000189
:10194000E451080E04010401016F0501050E0401B4
:101950000401036F0501000E0401026F800E0401F3
:101960000401006F0601060E04010401076F060161
:10197000000E0401066FC80E04010401046F21D09B
:101980000001E46F020E1C6E0001E451000E040120
:101990000401056FC80E04010401046F080E040160
:1019A0000401016F0601060E04010401036F060124
:1019B000000E0401026FC80E04010401006F01D083
:1019C00000D012000001E36F000E1D6E0001E35114
:1019D0000401040108BF01D001D05BD00001000167
:1019E000E25104010401096101D001D003D009C40E
:1019F000E2F000D00001E36F000E1D6E0001E35124
:101A00001AD01D50010D0701000EF324D96E0701F5
:101A1000070EF420DA6E1D50010DF3500001000195
:101A2000E025E16EF45000010001E121E26EDFCF1C
:101A3000E7FF1D2A00D000010001E2511D5CD8A083
:101A400001D001D0DED700D0400E04010401096F9F
:101A5000400E0401040108170401040108AD01D07F
:101A600002D0010E01D0000E0001E36F0001E33B44
:101A7000E347E347040104010851E319BF0BE319ED
:101A800004010401086F880E04010401081301D049
:101A900000D01200400E00010001E26501D001D02B
:101AA00008D00001E36F400E00010001E26F000169
:101AB000E3510001E36F000E00010001E46F00013B
:101AC000E35120D000010001E451010DF350000169
:101AD0000001E025D96EF45000010001E121DA6E29
:101AE00000010001E451010D0701400EF324E16EF5
:101AF0000701070EF420E26EDFCFE7FF00010001CF
:101B0000E42B00D000010001E25100010001E45D7E
:101B1000D8A001D001D0D6D7E2C00DF4400E040108
:101B200004010C17040104010CAD01D002D0010E18
:101B300001D0000E0001E36F0001E33BE347E34700
:101B4000040104010C51E319BF0BE3190401040162
:101B50000C6F880E040104010C131200040104012F
:101B600004AF01D001D005D0000E04010401046FC0
:101B700000D00001E56F000E1E6E0001E55100016E
:101B8000E56F000E1C6E0001E5510001E56F000ECF
:101B90001B6E0001E551000E226E000E216EC4EC9A
:101BA00009F00001E56F000E00010001E66F000181
:101BB000E55100010001E651D8B401D001D002D0B6
:101BC0002BD02AD01B50D8B401D001D002D024D0C1
:101BD00023D000010001E651020D0A0EF324F66E37
:101BE000080EF420F76E01D80CD00500FA6E09003B
:101BF000F550FD6E0900F550FE6EF850FF6EFA507C
:101C0000120000010001E62B00010001E651D8B4EA
:101C100001D001D0D7D700D067EC0CF012001F66BE
:101C200001D001D002D04DD04CD065A401D001D05C
:101C300003D003EC12F000D060A201D001D002D09A
:101C400040D03FD065A001D001D003D0B0EC0EF061
:101C500000D065A801D001D003D00DEC12F000D067
:101C600065AA01D001D003D072EC11F000D0030EB0
:101C70001F6001D001D002D024D023D00001EA6F30
:101C8000000E1A6E0001EA51030E1A6401D001D051
:101C900002D017D016D065A601D001D012D0ECEC3E
:101CA0000BF00009D8A401D001D004D0659602D071
:101CB00001D007D01A2A030E1A6401D001D0EBD745
:101CC00000D0120061C0F6FF62C0F7FF63C0F8FFEA
:101CD0000001E16F000E126E0001E15137D00001EA
:101CE000000165510001E16FE26B0001E11FE21F9D
:101CF000E14BE22B12500001E1250001E36F0001EE
:101D00000001000EE221E46F400E0001E327000E07
:101D1000E4230001600E0001E325D96E0001000EEE
:101D20000001E421DA6EDF50F56E0C00C40EA66EE1
:101D30000001E16FB50E00010001E06F0001E1510B
:101D40000001AAEC11F00900122A00D000010001E4
:101D50006551125CD8A001D001D0C1D700D01200CB
:101D6000000E676E000E656E9F0E666E7B0E646ED3
:101D7000000E636E0F0E00010001E16F6B0E00019B
:101D8000E06F0001E36F0F0E00010001E26F000140
:101D9000E3510001DCEC11F0160E6A6E06D0659678
:101DA00000F000F000F000F000F065B601D001D0C6
:101DB000F6D76098F8EC11F0080E04010401016FE9
:101DC0000501050E04010401036F0501000E040165
:101DD000026F8C0E04010401006F20900001E36F7C
:101DE000000E256E0001E3510001E36F030E1F6E2C
:101DF0000001E35112000001E16F000E136E0001BB
:101E0000E1513AD00001000161511324A96E000193
:101E1000000165510001E16FE26B0001E11FE21F6B
:101E2000E14BE22B13500001E1250001E36F0001BB
:101E30000001000EE221E46F400E0001E327000ED6
:101E4000E4230001600E0001E325D96E0001000EBD
:101E50000001E421DA6EDF50A86E040EA66E0001C8
:101E6000E16FB50E00010001E06F0001E1510001DA
:101E7000AAEC11F0132A00D0000100016551135C97
:101E8000D8A001D001D0BED700D012001F50040A44
:101E9000D8A401D001D016D002C563FF6350D8B4D6
:101EA00001D001D007D00001E46F050E1F6E0001C4
:101EB000E45108D00001E46F030E1F6E0001E451ED
:101EC00001D000D01C04D8A401D001D01FD07CECDC
:101ED00008F01E50020AD8A401D001D005D0840E0B
:101EE00004010401046F15D00401040104BD01D0F4
:101EF00001D005D0C80E04010401046F0AD0880E79
:101F000004010401046F05D004D003D0F8EC11F0F3
:101F100000D012000001E36F010E1B6E0001E351BF
:101F20000F0E00010001E16F6B0E0001E06F000178
:101F3000E36F0F0E00010001E26F0001E3510001A9
:101F4000DCEC11F0000E00010001E16F260E000133
:101F5000E06F0001E36F010E00010001E26F00017C
:101F6000E3510001DCEC11F002C525F0050105018B
:101F7000026701D001D007D00001E36F050E1F6E8C
:101F80000001E35109D00001E36F060E1F6E00014E
:101F9000E35105EC11F000D01200040104010051DE
:101FA000030B00010001E16F01C4E0F0000100013A
:101FB000E0512124216E00010001E1512220226E16
:101FC0000601060E0B6E0601000E0A6E1FD00AC037
:101FD000F6FF0BC0F7FFF86A07C0D9FF08C0DAFFA9
:101FE000070EF76403D00800F55005D0F6CFE9FFDF
:101FF000F7CFEAFFEF50DF6E074A082A0A4A0B2A9A
:1020000000010001E007D8A0E10700D000010001B5
:10201000E151E011D8A401D001D0D9D700D01200ED
:102020001C50020AD8A401D001D020D0CDEC0FF072
:102030000601060E04010401036F0601000E0401EF
:10204000026F080E04010401016F0401040100BDC8
:1020500001D001D005D0C80E04010401006F1AD0D0
:10206000880E04010401006F15D014D0F8EC11F0B3
:10207000080E04010401016F0501050E04010401AD
:10208000036F0501000E0401026F8C0E04010401B0
:10209000006F00D01200EACF3BF0E1CF3CF0E2CF7E
:1020A0003DF0D9CF3EF0DACF3FF0F3CF40F0F4CFA0
:1020B00041F0F6CF42F0F7CF43F0F8CF44F0F5CF40
:1020C00045F004EF20F045C0F5FF44C0F8FF43C0E1
:1020D000F7FF42C0F6FF41C0F4FF40C0F3FF3FC02E
:1020E000DAFF3EC0D9FF3DC0E2FF3CC0E1FF3BC08C
:1020F000EAFF3AC0E9FF39C0FBFF38C0FAFF110020
:1021000060B601D001D014D0ECEC11F011D010D099
:1021100060A601D001D00CD0000E606E000E646E7F
:102120000001E16F000E1F6E0001E15101D000D0EF
:102130001F04D8A401D001D012D060BA01D001D0C0
:102140000ED0000E656E000E646E6480648800011F
:10215000E16F020E1F6E0001E15101D000D01200AC
:102160000E500D10D8A401D001D005D0270E0E6E50
:10217000100E0D6E00D00D06D8A00E06060E1F60C4
:1021800001D001D002D08B8016D00E500D10D8A4F3
:1021900001D001D010D08BA001D002D0010E01D00F
:1021A000000E0001E06F8B500001E019FE0BE019FA
:1021B0008B6E01D000D01200800E9B6E700ED36E1D
:1021C000100ED26E00D0D2AE01D001D0FCD700D01C
:1021D0000001E16F900EB56E0001E151140E626EC8
:1021E0000001E16F000E1F6E0001E1510001E16F7F
:1021F000000E206E0001E1510001E16F000E256E1E
:102200000001E1518FEC11F012000001E06F000EAF
:102210001D6E0001E0511E0E6B6E400E04010401A4
:10222000096F0701070E040104010B6F0701000E7F
:1022300004010A6F880E04010401086F0701070EEC
:10224000040104010F6F0701400E04010E6F400EE0
:10225000040104010C6F12006092000E606E000118
:10226000E06F000E116E0001E0511128D8A401D0DA
:1022700001D002D014D013D0E86806D0E80600F0F0
:1022800000F000F000F000D0E86601D001D0F6D7F1
:1022900000D0112A1128D8A401D001D0EDD7FF0019
:1022A00000F000F0120080AE01D001D003D000EFAA
:1022B00020F000D0DCEC10F0040015EC12F0B0ECD3
:1022C00010F01F50060AD8A401D001D0F5D760B293
:1022D00001D001D0F1D762EC04F0EED7EDD7ECD706
:1022E00053EF00F06AA001D001D017D0040104011F
:1022F0000051800AD8A401D001D00DD004010401FE
:102300000451840AD8A401D001D005D08C0E040158
:102310000401006F00D06A9000D0659A12008B947F
:1023200094940001E06F000E176E0001E051FF0E63
:10233000046EFF0E056EFF0E066E0001E06F000ECC
:10234000186E0001E0510001E06F010E196E0001EE
:10235000E0511200F29E00010001E051B50AD8B42C
:1023600001D001D006D0030ED36E0300FED7FDD7F7
:10237000FF00550EA76EAA0EA76EA68200D0A6B2C9
:1023800001D001D0FCD7A694120001EE00F0400E5F
:10239000EE6AE806FDE100EE60F0800EEE6AE80607
:1023A000FDE100EE01F0260EEE6AE806FDE1000E0A
:1023B000F86E000153EF11F0E0C0D9FFE1C0DAFF81
:1023C000000EDF6E00010001E04BE12B0001000177
:1023D000E22FF2D700D01200000E606E000E646E85
:1023E00060860001E06F010E1F6E0001E0511200D7
:1023F0000001E06F000E1C6E0001E051000E0401B0
:102400000401046F12006092649401D0659465B475
:1024100001D001D0FBD700D012006484659860829F
:10242000A494A3840300A394120080EC10F00FEC9A
:102430000EF0120004001200090012001200120037
:020000040020DA
:08000000FFFFFFFFFFFFFFFF00
:020000040030CA
:0E00000021081F3EFF9181FF0FC00FE00F404F
:00000001FF
